:02000000862C4C
:08000800FF00030E8312031335
:10001000B4000A0EB500040EB6008A110A12AE2C06
:10002000D108031D14280800F9300000000000006A
:10003000000000000000FF3E031D15280000000026
:1000400000000000000000000000D10B1428080090
:10005000E208031D2C28080004300000FF3E031DA9
:100060002D2800000000E20B2C280800FA30D100F7
:100070001020FA30D1001020FA30D1001020FA30D0
:10008000D1001020CA0B36280800D0014F085002BA
:100090000318080064000130D1001020D00A46285F
:1000A0000612861206138613061186115F0E0F398B
:1000B000E1000F30E10561180616E1188616611996
:1000C0000617E1198617E008031D06150A30E2003D
:1000D000282086150A30E200282086110F305F059F
:1000E000E1000A30E2002820061286120613861369
:1000F0000611861161180616E11886166119061791
:10010000E1198617E008031D06150A30E2002820D1
:1001100086150A30E200282086110A30E2002820E5
:100120000800D501D601D801D901D701571A080016
:100130000310D80DD90DCF0DD00DD50DD60D520809
:100140005602031DA52851085502031CAE2851086C
:10015000D5025208031CD603D6025814D70A962893
:10016000CE08031DB6288030CE00B828C030CE009F
:100170004D084E07DF00E00150200230CF0045203F
:100180000800013083120313DF00E0015020023029
:10019000CF0045200230DF00E00150200230CF00C8
:1001A00045200800CB1FE1282D30DF001030E00093
:1001B00050204A08003CCF00CB090318CB0A4F0857
:1001C000CA004A08CC004B08CD0027304B02031D63
:1001D000EB2810304A02031C1929CB1B1929D30123
:1001E0004C08CF004D08D000CD1FFC28CF09D00906
:1001F000CF0A0319D00AD30A1030D1002730D20019
:1002000091205808CE00531C0729CE09CE0A4E086B
:10021000303EDF001030E00050204E08003C031854
:1002200019291030CC022730031C2830CD02CE0310
:100230000D2903304B02031D1F29E8304A02031C1D
:100240004F29CB1B4F29D4014C08CF004D08D000BB
:10025000CD1F3029CF09D009CF0A0319D00AD40AFB
:10026000E830D1000330D20091205808D300541C4C
:100270003B29D309D30A5308CE004E08303EDF0095
:100280001030E00050204E08003C03184F29E830A1
:10029000CC020330031C0430CD02CE0343294B08AB
:1002A000803ACF0080304F02031D582964304A0243
:1002B000031C8429D4014C08CF004D08D000CD1F69
:1002C0006729CF09D009CF0A0319D00AD40A6430AC
:1002D000D100D20191205808D300541C7129D309B0
:1002E000D30A5308CE004E08303EDF001030E00045
:1002F00050204E08003C031884296430CC02CD08FD
:10030000031CCD03CE0379294B08803ACF008030FF
:100310004F02031D8D290A304A02031CB929D4015A
:100320004C08CF004D08D000CD1F9C29CF09D00923
:10033000CF0A0319D00AD40A0A30D100D201912081
:100340005808D300541CA629D309D30A5308CE0059
:100350004E08303EDF001030E00050204E08003CD8
:100360000318B9290A30CC02CD08031CCD03CE03F3
:10037000AE294C08303EDF001030E000502008006D
:10038000DE01DE015D085E020318080083134B18CE
:1003900083174A085E078400800803190800831346
:1003A0004B1883174A085E0784000008DF001030EE
:1003B000E0005020DE0AC2292830CC00CD014A08D6
:1003C000CE00B020CB014C084B020318EE292030A0
:1003D000DF001030E0005020CB0AE329CD014A08AD
:1003E000CE00B02008000A308312031339023A0805
:1003F0000318FC290319FE29BA1F272ACA01DC2188
:100400003A30D3005630CC006530D000D20069308D
:10041000CE006A30CF006D30D1007230CD00D401F3
:100420000030CB004C30CA000830DD00C021203045
:10043000CC00CD010030CB004C30CA000130DD00D3
:10044000C0213908CA003A08CB00D220452ACA0187
:10045000DC213A30D3005630CC006530D000D200D9
:100460006930CE006A30CF006D30D1007230CD00DF
:10047000D4010030CB004C30CA000830DD00C02170
:100480003908CA003A08CB00D2207330CC00CD0125
:100490000030CB004C30CA000130DD00C021080024
:1004A000C120CD01CE01B0202030D3005530CC008A
:1004B0006130CE00D7006230CD006330CF00DA006B
:1004C0006530D200DB006930D000D9006B30D40039
:1004D0006E30D8006F30D5007430D1007630D60041
:1004E000DC010030CB004C30CA001030DD00C021F0
:1004F000CD010130CE00B0202030D200D700DB008B
:100500002C30D100D6002E30CD003030CC00313030
:10051000D3003230D8003530CE004B30CF00D4007D
:10052000D9004D30D000D500DA00DC010030CB001E
:100530004C30CA001030DD00C021080083160313C0
:1005400006128312061283168612831286128316EF
:1005500006138312061383168613831286138316DB
:1005600006118312061183168611831286110C3030
:10057000CF0045203330DF00E00150200230CF00B3
:1005800045203330DF00E00150200230CF0045200D
:100590003230DF00E00150200230CF0045202C3007
:1005A000DF00E00150200230CF0045200630DF00A0
:1005B000E00150200230CF0045200C30DF00E00188
:1005C00050200230CF0045200130DF00E0015020F4
:1005D0000230CF0045200230DF00E0015020023021
:1005E000CF00452008000730831603139F00C0305A
:1005F00081008312B901BA010130C900C700C600E9
:10060000C500C8010130C400FE308316070587000D
:10061000FE3083120705CA0001304A0487009E227B
:100620005022013083160504850001308312050530
:10063000CA00C9014A030319C90A02308316050416
:100640008500023083120505CA00C70102304A0244
:100650000319C70A04308316050485000430831289
:100660000505CA00C60104304A020319C60A08304B
:10067000831605048500083083120505CA00C501EC
:1006800008304A020319C50AC908031D5F2B05304B
:10069000B907BA080318BA0AF321C908031D5F2B6A
:1006A0000130831605048500013083120505CA0058
:1006B000CB014A030319CB0A4B08C9004D2BC708CD
:1006C000031D7B2B0A30B907BA080318BA0AF321B5
:1006D000C708031D7B2B02308316050485000230FA
:1006E00083120505CA00CB0102304A020319CB0A66
:1006F0004B08C700682BC608031D972B1430B90799
:10070000BA080318BA0AF321C608031D972B043050
:10071000831605048500043083120505CA00CB0149
:1007200004304A020319CB0A4B08C600842BC508C3
:10073000031D112B0130C8004803031D112B10307D
:10074000831605048500103083120505CA00C40114
:1007500010304A020319C40AC408031DE42B0130F7
:10076000CA00DC21CD010130CE00B0205330CC00D6
:100770005430CD004F30CE005030CF00D00100308B
:10078000CB004C30CA000430DD00C021FE3083169F
:1007900007058700FE3083120705CA0001304A04AE
:1007A0008700C408031D9C2B1030831605048500A8
:1007B000103083120505CA00CB0110304A0203191C
:1007C000CB0A4B08C400D12BFE30831607058700E7
:1007D000FE308312070587000130CA00DC21493052
:1007E000CC007330CD007030CE006930CF00723055
:1007F000D0006130D1006E30D2006A30D300653055
:10080000D4002E30D500D600D700D8010030CB0060
:100810004C30CA000C30DD00C0210130B902BA08EA
:10082000031CBA03CD01CE01B0200A3039023A08C8
:1008300003181C2C03191E2CBA1F472CCA01DC21DB
:100840003A30D3005630CC006530D000D200693049
:10085000CE006A30CF006D30D1007230CD00D401AF
:100860000030CB004C30CA000830DD00C021203001
:10087000CC00CD010030CB004C30CA000130DD008F
:10088000C0213908CA003A08CB00D220652CCA0121
:10089000DC213A30D3005630CC006530D000D20095
:1008A0006930CE006A30CF006D30D1007230CD009B
:1008B000D4010030CB004C30CA000830DD00C0212C
:1008C0003908CA003A08CB00D2207330CC00CD01E1
:1008D0000030CB004C30CA000130DD00C0210130B7
:1008E000CA003620B908031D9C2BBA08031D9C2B97
:1008F000C801FE30831607058700FE308312070506
:10090000CA0001304A04870050229C2BD530831244
:100910000313A000C430A100BB30A200DC30A30050
:10092000A401A501A601A701A801A901AA01AB0183
:10093000AC01AD01AE01AF01BE01BF01B701B8010D
:10094000C001C101C201C301B001B101B201B301D3
:10095000BC01BD01BB018A110A12F32A83120313E1
:10096000360E8400350E8A00340E8300FF0E7F0E93
:0209700009007C
:02400E007A3FF7
:00000001FF
